:100000000EC028C027C026C025C035C223C022C0CC
:1000100021C020C01FC01EC01DC01CC01BC0112499
:100020001FBECFE5D1E0DEBFCDBF10E0A0E6B0E05F
:10003000ECE2F7E002C005900D92A236B107D9F7C5
:1000400020E0A2E6B0E001C01D92AB36B207E1F7B6
:1000500002D06AC3D5CFCF93DF93CDB7DEB7F89484
:100060009ED1E3D1B6D1789480916A00882F90E038
:100070008130910509F458C0823091051CF4892B18
:1000800029F194C08230910509F47EC0039709F4E8
:1000900085C08CC08CD0DC01CB0180936400909330
:1000A0006500A0936600B093670080916000809324
:1000B00061008091640090916500A0916600B0910C
:1000C0006700BC01CD01D4D08093600080916400B2
:1000D00090916500A0916600B091670026E636E633
:1000E00046E850E4BC01CD011BD318169CF2809168
:1000F000640090916500A0916600B091670023E3D1
:1001000033E343E150E4BC01CD01ECD1882314F288
:100110008091600085D080E190E0909369008093A9
:10012000680081E080936A0042D0DC01CB018093BB
:10013000640090936500A0936600B093670080917F
:10014000640090916500A0916600B0916700BC01C9
:10015000CD018ED08093600090916000809161000D
:10016000981771F0809160008093610080EF92E0B9
:10017000909369008093680082E080936A0016C0C3
:1001800083E080936A0012C08091680090916900BA
:10019000892B59F481E080936A0007C08091600048
:1001A0003FD081E080936A0001C000005DCFCF9313
:1001B000DF93CDB7DEB785E290E0FC018081882F28
:1001C00090E0382F222784E290E0FC018081882F84
:1001D00090E0822B932B9093630080936200809138
:1001E000620090916300892BB1F080916200909140
:1001F0006300CC01A0E0B0E0BC01CD01DFD1DC01A7
:10020000CB019C01AD0167ED73EA80E994E46ED106
:10021000DC01CB0100C0BC01CD01DF91CF9108957D
:10022000CF93DF931F92CDB7DEB789838981882F63
:1002300090E08130910561F08230910519F0892BB1
:1002400061F011C088E390E028E0FC0120830BC03E
:1002500088E390E0FC01108206C088E390E020E192
:10026000FC012083000000000F90DF91CF910895E2
:10027000CF93DF9300D000D01F92CDB7DEB76A8353
:100280007B838C839D83198280916000882F90E00E
:100290008130910581F18230910521F0892B09F49B
:1002A00048C070C026E636E646E450E46A817B81A9
:1002B0008C819D8117D1882374F423E333E343E3D6
:1002C00050E46A817B818C819D812AD218161CF4AE
:1002D00081E089835BC023E333E343E350E46A8135
:1002E0007B818C819D81FED0181614F019824EC03E
:1002F00082E089834BC023E333E343E350E46A8124
:100300007B818C819D81EED0181614F019823EC03D
:1003100023E333E343E550E46A817B818C819D8153
:10032000FFD188231CF082E0898330C081E089837B
:100330002DC020E030E040E450E46A817B818C8174
:100340009D81EED1882374F023E333E343E550E449
:100350006A817B818C819D81C5D088231CF481E0DA
:10036000898314C023E333E343E550E46A817B814E
:100370008C819D81D5D188231CF082E0898306C0C1
:10038000198204C0809160008983000089810F90E8
:100390000F900F900F900F90DF91CF910895CF9312
:1003A000DF93CDB7DEB787E390E027E330E0F901D4
:1003B00020812861FC01208388E390E028E330E07D
:1003C000F90120812861FC0120830000DF91CF9199
:1003D0000895CF93DF93CDB7DEB786E290E026E2B3
:1003E00030E0F90120812068FC01208387E290E061
:1003F00027E230E0F90120812C60FC01208383E2B8
:1004000090E023E230E0F90120812460FC012083A8
:1004100086E290E026E230E0F90120812066FC01CE
:1004200020830000DF91CF910895CF93DF93CDB764
:10043000DEB78AE490E0FC01108283E590E0FC01E5
:10044000108283E590E023E530E0F901208122600D
:10045000FC01208382E590E0FC01108289E590E0B8
:1004600029E530E0F90120812260FC0120830000B1
:10047000DF91CF9108951F920F9200905F000F922D
:1004800011242F933F938F939F93EF93FF93CF93D9
:10049000DF93CDB7DEB78091680090916900892B1A
:1004A00049F08091680090916900019790936900EC
:1004B0008093680088E590E028E530E0F90120812C
:1004C0002260FC0120830000DF91CF91FF91EF912A
:1004D0009F918F913F912F910F9000925F000F900D
:1004E0001F901895A8D008F481E008950CD0DEC0C4
:1004F000D6D040F0CDD030F021F45F3F19F0BFC02E
:10050000511108C1C2C0E3D098F39923C9F3552310
:10051000B1F3951B550BBB27AA27621773078407F6
:1005200038F09F5F5F4F220F331F441FAA1FA9F3AC
:1005300033D00E2E3AF0E0E830D091505040E6959E
:10054000001CCAF729D0FE2F27D0660F771F881FFF
:10055000BB1F261737074807AB07B0E809F0BB0BEE
:10056000802DBF01FF2793585F4F2AF09E3F510512
:1005700068F085C0CFC05F3FECF3983EDCF3869512
:1005800077956795B795F7959F5FC9F7880F911D88
:100590009695879597F90895E1E0660F771F881F74
:1005A000BB1F621773078407BA0720F0621B730B27
:1005B000840BBA0BEE1F88F7E0950895E89409C004
:1005C00097FB3EF490958095709561957F4F8F4F86
:1005D0009F4F9923A9F0F92F96E9BB279395F6959C
:1005E000879577956795B795F111F8CFFAF4BB0F1A
:1005F00011F460FF1BC06F5F7F4F8F4F9F4F16C07E
:10060000882311F096E911C0772321F09EE8872F07
:10061000762F05C0662371F096E8862F70E060E0C3
:100620002AF09A95660F771F881FDAF7880F96953C
:10063000879597F90895990F0008550FAA0BE0E8E0
:10064000FEEF16161706E807F907C0F01216130694
:10065000E407F50798F0621B730B840B950B39F4D4
:100660000A2661F0232B242B252B21F408950A263A
:1006700009F4A140A6958FEF811D811D089597F97A
:100680009F6780E870E060E008959FEF80EC089538
:1006900000240A9416161706180609060895002461
:1006A0000A9412161306140605060895092E0394DB
:1006B000000C11F4882352F0BB0F40F4BF2B11F44F
:1006C00060FF04C06F5F7F4F8F4F9F4F089557FDAE
:1006D0009058440F551F59F05F3F71F04795880FB0
:1006E00097FB991F61F09F3F79F087950895121647
:1006F00013061406551FF2CF4695F1DF08C01616F3
:1007000017061806991FF1CF8695710561050894A3
:100710000895E894BB2766277727CB0197F90895BA
:0C0720008ADF08F48FEF0895F894FFCFF3
:02072C000202C7
:00000001FF
